S01800004861636B6174686F6E50726F6A6563742E73726563A4
S11300000C94FE000C9424010C9424010C942401FF
S11300100C9424010C9424010C9424010C942401C8
S11300200C9424010C9424010C9424010C942401B8
S11300300C9424010C9424010C9424010C942401A8
S11300400C9424010C9424010C9424010C94240198
S11300500C9428020C9424010C9424010C94240183
S11300600C9424010C9424010C9424010C94240178
S11300700C9424010C9424010C9424010C94240168
S11300800C9424010C9424010C9424010C94240158
S11300900C9424010C9424010C9424010C94240148
S11300A00C9424010C9424010C9424010C94240138
S11300B00C94B7020C9424010C9424010C94240194
S11300C00C9424010C9424010C9424010C94240118
S11300D00C9424010C9424010C9424010C94240108
S11300E00C9424010C9424010C9424010C942401F8
S11300F00C9424010C9424010C9424010C942401E8
S11301000C9424010C9424010C9424010C942401D7
S11301100C9424010C9424010C9424010C942401C7
S11301200C9424010C9424010C9424010C942401B7
S11301300C9424010C9424010C9424010C942401A7
S11301400C9424010C9424010C9424010C94240197
S11301500C9424010C9424010C9424010C94240187
S11301600C9424010C9424010C9424010C94240177
S11301700C9424010C9424010C9424010C94240167
S11301800C9424010C9424010C9424010C94240157
S11301900C9424010C9424010C9424010C94240147
S11301A00C9424010C9424010C9424010C94240137
S11301B00C9424010C9424010C9424010C94240127
S11301C00C9424010C9424010C9424010C94240117
S11301D00C9424010C9424010C9424010C94DF024B
S11301E00C9424010C9424010C9424010C942401F7
S11301F00C9424010C9424010C94240111241FBE9A
S1130200CFEFCDBFDFE3DEBF00E00CBF18BE19BEE9
S11302101ABE1BBE12E2A0E0B0E2E6EFF6E000E098
S11302200BBF02C007900D92A030B107D9F71BBED7
S113023022E2A0E0B2E201C01D92A430B207E1F7CD
S11302400E9466020C9479030C940000CF93DF9310
S1130250CDB7DEB780E096E02FEFFC0122830000EB
S1130260DF91CF910895CF93DF93CDB7DEB780E4CC
S113027096E02FEFFC0121830000DF91CF910895D8
S1130280CF93DF93CDB7DEB780E896E023E0FC019F
S1130290228380E896E021E0FC01228780E896E052
S11302A022E0FC01238780E896E02AE0FC01218714
S11302B080E896E023E0FC01208B80E896E022E0D1
S11302C0FC01218B0000DF91CF910895CF93DF9340
S11302D0CDB7DEB780EA96E028E3FC01218380EA0B
S11302E096E020E2FC01258380EA96E028E0FC0108
S11302F0258380EA96E024E0FC0122830000DF915C
S1130300CF910895CF93DF93CDB7DEB780E696E023
S113031020E7FC01218380E696E020E7FC012583A9
S11303200000DF91CF910895CF93DF93CDB7DEB76F
S113033080E093E029E0FC01208380E093E022E266
S1130340FC01218380E093E028E1FC01228380E02A
S113035093E0FC0113820000DF91CF910895CF93C5
S1130360DF93CDB7DEB780E098E027E430E0FC010E
S113037026A337A380E098E021E0FC01208300005D
S1130380DF91CF910895CF93DF93CDB7DEB780E0AF
S113039091E020E031E0F90120812064FC01208318
S11303A080E091E029E5FC01228B80E091E021E0EE
S11303B0FC01238B80E091E020E032E0FC01248BFF
S11303C0358B80E091E0FC01168A80E091E020E02A
S11303D030E2FC01208F80E091E020E030E2232F26
S11303E03327FC01218F20E031E080E090E2CC0152
S11303F0A0E0B0E0CD01AA27BB27F901828F80E0FD
S113040091E02AE1FC01248F80E091E023E0FC01EB
S1130410258F80E091E0FC01168E80E091E025E2DA
S1130420FC01208B80E091E020E031E0F90120899B
S11304302068FC01208B80E091E020E031E0F901AC
S113044020812068FC0120830000DF91CF91089572
S11304501F920F9200903F000F92112400903800D9
S11304600F921092380000903A000F9210923A00C6
S113047000903B000F9210923B002F938F939F9319
S1130480EF93FF93CF93DF93CDB7DEB780E498E08B
S1130490FC01108280EA96E020E2FC012683000041
S11304A0DF91CF91FF91EF919F918F912F910F90B9
S11304B000923B000F9000923A000F900092380097
S11304C00F9000923F000F901F901895CF93DF93E9
S11304D0CDB7DEB70E9426010E9433010E94660157
S11304E00E9440010E9448030E9482010E94AF01C1
S11304F00E94940180E498E021E0FC0126830E949C
S1130500C30180E891E020ECFC01208380EA90E0C4
S113051020EA30E0F90122812260FC01228380EA92
S113052090E020EA30E0F90122812160FC0122837D
S1130530789480E098E020E530E0FC0126A337A31E
S113054080EA96E020E2FC01258380E498E0FC0147
S113055010A211A280E498E020E03FE1FC0126A370
S113056037A380E498E027E0FC012083E2CF1F92C8
S11305700F9200903F000F921124009038000F92C8
S11305801092380000903A000F9210923A008F9324
S1130590CF93DF93CDB7DEB781E0809302220000D2
S11305A0DF91CF918F910F9000923A000F900092BB
S11305B038000F9000923F000F901F9018951F92E3
S11305C00F9200903F000F921124009038000F9278
S11305D010923800009039000F9210923900009068
S11305E03A000F9210923A0000903B000F92109242
S11305F03B002F933F934F935F936F937F938F931E
S11306009F93AF93BF93EF93FF93CF93DF93CDB7B4
S1130610DEB70E946703809303228091012288231E
S113062021F080910122813019F481E090E002C030
S113063080E090E081702091032291E0223709F05C
S113064090E08923882319F081E080930022000040
S1130650DF91CF91FF91EF91BF91AF919F918F91D6
S11306607F916F915F914F913F912F910F900092E5
S11306703B000F9000923A000F90009239000F90C7
S1130680009238000F9000923F000F901F90189531
S1130690CF93DF93CDB7DEB780EA9BE0FC011682EF
S11306A080EA9BE0FC01178280EA9BE023E0FC01E6
S11306B0258380EA9BE028E1FC01248380EA9BE017
S11306C020E2FC0123830000DF91CF910895CF93B2
S11306D0DF93CDB7DEB7000080EA9BE0FC018181A7
S11306E08823D4F780EA9BE0FC018081DF91CF91DD
S10906F00895F894FFCF09
S11306F60008320864089608C808FA082C095E0936
S11307068F09C009F109220A520A820AB10AE00ACB
S11307160F0B3D0B6B0B980BC50BF10B1C0C470C0D
S1130726710C9A0CC30CEB0C120D390D5F0D830D75
S1130736A70DCA0DED0D0E0E2E0E4E0E6C0E8A0E64
S1130746A60EC10EDC0EF50E0D0F240F3A0F4F0F39
S1130756630F760F870F980FA70FB50FC20FCD0F34
S1130766D80FE10FE90FF00FF50FF90FFD0FFE0F8C
S1130776FF0FFE0FFD0FF90FF50FF00FE90FE10F55
S1130786D80FCD0FC20FB50FA70F980F870F760F8F
S1130796630F4F0F3A0F240F0D0FF50EDC0EC10E2B
S11307A6A60E8A0E6C0E4E0E2E0E0E0EED0DCA0DF4
S11307B6A70D830D5F0D390D120DEB0CC30C9A0CAE
S11307C6710C470C1C0CF10BC50B980B6B0B3D0BFA
S11307D60F0BE00AB10A820A520A220AF109C00979
S11307E68F095E092C09FA08C808960864083208B5
S11307F60008CD079B07690737070507D306A10637
S113080670063F060E06DD05AD057D054E051F0582
S1130816F004C204940467043A040E04E303B80320
S11308268E0365033C031403ED02C602A0027C0298
S1130836580235021202F101D101B1019301750189
S113084659013E0123010A01F200DB00C500B00094
S11308569C0089007800670058004A003D00320079
S113086627001E0016000F000A0006000200010001
S113087600000100020006000A000F0016001E0018
S1130886270032003D004A005800670078008900BE
S11308969C00B000C500DB00F2000A0123013E0102
S11308A6590175019301B101D101F1011202350219
S11308B658027C02A002C602ED0214033C0365033F
S11308C68E03B803E3030E043A0467049404C204D3
S11308D6F0041F054E057D05AD05DD050E063F0634
S11308E67006A106D3060507370769079B07CD07D8
S9030000FC
