:100000000C94FE000C9424010C9424010C94240103
:100010000C9424010C9424010C9424010C942401CC
:100020000C9424010C9424010C9424010C942401BC
:100030000C9424010C9424010C9424010C942401AC
:100040000C9424010C9424010C9424010C9424019C
:100050000C9424010C9424010C9424010C9424018C
:100060000C9424010C9424010C9424010C9424017C
:100070000C9424010C9424010C9424010C9424016C
:100080000C9424010C9424010C9424010C9424015C
:100090000C9424010C9424010C9424010C9424014C
:1000A0000C9424010C9424010C9424010C94FB0165
:1000B0000C9424010C9424010C9424010C9424012C
:1000C0000C9424010C9424010C9424010C9424011C
:1000D0000C9424010C9424010C9424010C9424010C
:1000E0000C9424010C9424010C9424010C942401FC
:1000F0000C9424010C9424010C9424010C942401EC
:100100000C9424010C9424010C9424010C942401DB
:100110000C9424010C9424010C9424010C942401CB
:100120000C9424010C9424010C9424010C942401BB
:100130000C9424010C9424010C9424010C942401AB
:100140000C9424010C9424010C9424010C9424019B
:100150000C9424010C9424010C9424010C9424018B
:100160000C9424010C9424010C9424010C9424017B
:100170000C9424010C9424010C9424010C9424016B
:100180000C9424010C9424010C9424010C9424015B
:100190000C9424010C9424010C9424010C9424014B
:1001A0000C9424010C9424010C9424010C9424013B
:1001B0000C9424010C9424010C9424010C9424012B
:1001C0000C9424010C9424010C9424010C9424011B
:1001D0000C9424010C9424010C9424010C9423020B
:1001E0000C9424010C9424010C9424010C942401FB
:1001F0000C9424010C9424010C94240111241FBE9E
:10020000CFEFCDBFDFE3DEBF00E00CBF18BE19BEED
:100210001ABE1BBE10E2A0E0B0E2E4EBF5E000E0A5
:100220000BBF02C007900D92A030B107D9F71BBEDB
:1002300020E2A0E0B0E201C01D92A730B207E1F7D2
:100240000E9494010C94D8020C940000CF93DF9389
:10025000CDB7DEB780E096E02FEFFC0122830000EF
:10026000DF91CF910895CF93DF93CDB7DEB780E4D0
:1002700096E02FEFFC0121830000DF91CF910895DC
:10028000CF93DF93CDB7DEB780E896E023E0FC01A3
:10029000228380E896E021E0FC01228780E896E056
:1002A00022E0FC01238780E896E02AE0FC01218718
:1002B00080E896E022E0FC01208B80E896E022E0D6
:1002C000FC01218B0000DF91CF910895CF93DF9344
:1002D000CDB7DEB780EA96E028E3FC01218380EA0F
:1002E00096E020E2FC01258380EA96E028E0FC010C
:1002F000258380EA96E024E0FC0122830000DF9160
:10030000CF910895CF93DF93CDB7DEB780E696E027
:1003100020E7FC01218380E696E020E7FC012583AD
:100320000000DF91CF910895CF93DF93CDB7DEB773
:100330000E9426010E9433010E9466010E94400132
:100340000E948C020E94820180EA90E020EA30E064
:10035000F90122812260FC0122837894809104209B
:10036000882F90E08130910519F182309105A1F13B
:10037000892B09F03FC080E096E0FC0180858093E6
:100380000020809100208093012080E496E020915D
:100390000120FC01248380910520882341F181E024
:1003A0008093022081E080930420109205201FC0DA
:1003B00086E696E020E4FC01208382E70E94AB02FF
:1003C000809102208823A9F080910320882389F05E
:1003D00082E0809304200DC086E696E020E4FC01D4
:1003E000208385E696E020E1FC01208303C0000025
:1003F000B5CF0000B3CF1F920F9200903F000F9235
:100400001124009038000F921092380000903A00AA
:100410000F9210923A008F93CF93DF93CDB7DEB750
:1004200081E0809305200000DF91CF918F910F90A4
:1004300000923A000F90009238000F9000923F0017
:100440000F901F9018951F920F9200903F000F92EF
:100450001124009038000F9210923800009039005B
:100460000F921092390000903A000F9210923A00C9
:1004700000903B000F9210923B002F933F934F93BD
:100480005F936F937F938F939F93AF93BF93EF93FC
:10049000FF93CF93DF93CDB7DEB70E94C602809360
:1004A000062080910420882321F08091042081304F
:1004B00019F481E090E002C080E090E0817020912A
:1004C000062091E0223709F090E08923882319F073
:1004D00081E0809303200000DF91CF91FF91EF91A5
:1004E000BF91AF919F918F917F916F915F914F914C
:1004F0003F912F910F9000923B000F9000923A0095
:100500000F90009239000F90009238000F900092E7
:100510003F000F901F901895CF93DF93CDB7DEB7B4
:1005200080EA9BE0FC01168280EA9BE0FC011782D6
:1005300080EA9BE023E0FC01258380EA9BE028E140
:10054000FC01248380EA9BE020E2FC01238300007D
:10055000DF91CF910895CF93DF931F92CDB7DEB790
:100560008983000080EA9BE0FC018181882F90E074
:1005700080729927892BB1F380EA9BE02981FC01E5
:10058000208300000F90DF91CF910895CF93DF93E8
:10059000CDB7DEB7000080EA9BE0FC0181818823B3
:1005A000D4F780EA9BE0FC018081DF91CF91089530
:0405B000F894FFCFED
:00000001FF
