S01800004861636B6174686F6E50726F6A6563742E73726563A4
S11300000C9419010C943F010C943F010C943F0192
S11300100C943F010C943F010C943F010C943F015C
S11300200C943F010C943F010C943F010C943F014C
S11300300C943F010C943F010C943F010C943F013C
S11300400C943F010C943F010C943F010C943F012C
S11300500C943F010C943F010C943F010C943F011C
S11300600C943F010C943F010C943F010C943F010C
S11300700C943F010C943F010C943F010C943F01FC
S11300800C943F010C943F010C943F010C943F01EC
S11300900C943F010C943F010C943F010C943F01DC
S11300A00C943F010C943F010C943F010C943F03CA
S11300B00C9417030C943F010C943F010C943F01E2
S11300C00C943F010C943F010C943F010C943F01AC
S11300D00C943F010C943F010C943F010C943F019C
S11300E00C943F010C943F010C943F010C943F018C
S11300F00C943F010C943F010C943F010C943F017C
S11301000C943F010C943F010C943F010C943F016B
S11301100C943F010C943F010C943F010C943F015B
S11301200C943F010C943F010C943F010C943F014B
S11301300C943F010C943F010C943F010C943F013B
S11301400C943F010C943F010C943F010C943F012B
S11301500C943F010C943F010C943F010C943F011B
S11301600C943F010C943F010C943F010C943F010B
S11301700C943F010C943F010C943F010C943F01FB
S11301800C943F010C943F010C943F010C943F01EB
S11301900C943F010C943F010C943F010C943F01DB
S11301A00C943F010C943F010C943F010C943F01CB
S11301B00C943F010C943F010C943F010C943F01BB
S11301C00C943F010C943F010C943F010C943F01AB
S11301D00C943F010C943F010C943F010C94F403E4
S11301E00C943F010C943F010C943F010C943F018B
S11301F00C943F010C943F010C943F01CE03C703C0
S1130200C203BD03B803B303AE03A903A4030C9450
S1130210B3030C94CE030C94C2030C94A4030C9467
S1130220B8030C94AE030C94C7030C94A9030C9468
S1130230BD0311241FBECFEFCDBFDFE3DEBF00E05F
S11302400CBF18BE19BE1ABE1BBE10E2A0E0B0E27D
S1130250EAEFF9E000E00BBF02C007900D92A43072
S1130260B107D9F71BBE20E2A4E0B0E201C01D92A1
S1130270AE30B207E1F70E94AF010C94FB040C947A
S11302800000CF93DF93CDB7DEB780E096E02FEF89
S1130290FC0122830000DF91CF910895CF93DF9377
S11302A0CDB7DEB780E496E02FEFFC012183000098
S11302B0DF91CF910895CF93DF93CDB7DEB780E878
S11302C096E023E0FC01228380E896E021E0FC0133
S11302D0228780E896E022E0FC01238780E896E00C
S11302E02AE0FC01218780E896E023E0FC01208BD2
S11302F080E896E022E0FC01218B0000DF91CF91A1
S11303000895CF93DF93CDB7DEB780EA96E028E374
S1130310FC01218380EA96E020E2FC01258380EA47
S113032096E028E0FC01258380EA96E024E0FC01C5
S113033022830000DF91CF910895CF93DF93CDB74F
S1130340DEB780E696E020E7FC01218380E696E0B4
S113035020E7FC0125830000DF91CF910895CF931E
S1130360DF931F921F92CDB7DEB70E9441010E9416
S11303704E010E9481010E945B010E947E040E9442
S11303809D0180E00E945D0480EA90E020EA30E074
S1130390F90122812260FC01228378948091082053
S11303A0882F90E08230910509F461C08330910573
S11303B02CF4009759F00197B9F138C183309105B5
S11303C009F491C0049709F4C0C030C1109206200A
S11303D0109207201092092085E696E020E7FC01A0
S11303E0208380E696E020E2FC01268380E096E00C
S11303F0FC01808580930420809104208093052053
S113040080E496E020910520FC012483809109205A
S1130410882309F408C181E08093062081E0809359
S1130420082010920920FFC081E080930D2080E411
S113043096E02FEFFC01248385E696E020E7FC019B
S1130440208386E696E020E4FC01208382E70E9474
S11304509D0480910620882309F4E7C08091072039
S1130460882309F4E2C082E080930820DEC080E49F
S113047096E02FEFFC01248385E696E020E7FC015B
S1130480208386E696E020E1FC01208380E098E06A
S1130490FC0110A211A280E098E027E0FC01208377
S11304A080910020882379F004C0809105200E9467
S11304B09D048CE098E0FC018081882F90E081709D
S11304C09927892B91F380910020882321F40E949D
S11304D0B80480930B208CE098E021E0FC01208399
S11304E083E08093082080E496E02FEFFC012483CE
S11304F086E696E020E2FC01208380E098E0FC019F
S113050010A211A280910020882379F404C0809164
S113051005200E949D048CE098E0FC018081882FD6
S113052090E081709927892B91F380910020882392
S113053021F00E94B80480930B208CE098E021E025
S1130540FC01208384E08093082086E696E020E482
S1130550FC01208380E496E020910B20FC0124839D
S113056019821A823FC0809100208823C9F08091AB
S11305700B20282F30E080910520882F90E08227DF
S11305809327098002C0959587950A94E2F78170B4
S11305909927892B29F080910C208F5F80930C2060
S11305A0809100208823C9F480910B20282F30E00B
S11305B080910520882F90E082279327098002C02C
S11305C0959587950A94E2F781709927892B29F4E8
S11305D080910C208F5F80930C2089819A810196F1
S11305E089839A8389819A8108970CF4BCCF80E02F
S11305F098E027E0FC01208300008CE098E0FC01F7
S11306008081882F90E081709927892BB1F38CE049
S113061098E021E0FC01208380E098E0FC01108256
S11306201092082003C00000B9CE0000B7CE1F927C
S11306300F9200903F000F921124009038000F9207
S11306401092380000903A000F9210923A008F9363
S1130650CF93DF93CDB7DEB781E08093092000000C
S1130660DF91CF918F910F9000923A000F900092FA
S113067038000F9000923F000F901F9018951F9222
S11306800F9200903F000F921124009038000F92B7
S113069010923800009039000F92109239000090A7
S11306A03A000F9210923A0000903B000F92109281
S11306B03B002F933F934F935F936F937F938F935D
S11306C09F93AF93BF93EF93FF93CF93DF93CDB7F4
S11306D0DEB780910820882349F480910D20882377
S11306E029F41092002081E080930D2080910D2048
S11306F0882309F458C084E496E02FEFFC0120839A
S113070080910C20882F90E0880F991F880F991FE3
S1130710880F991F25E230E0B9010E94CA04CB0179
S1130720092E000CAA0BBB0B40E050E028E030E09F
S1130730841B950B28173907B0F1FC018827E25078
S1130740FF4F8F4F0C94DE0486E496E021E0FC0119
S1130750208386E496E022E0FC01208386E496E090
S113076024E0FC01208386E496E028E0FC01208359
S113077086E496E020E1FC01208386E496E020E212
S1130780FC01208386E496E020E4FC01208386E4D7
S113079096E020E8FC012083000005C084E496E094
S11307A02FEFFC0120830000DF91CF91FF91EF91A7
S11307B0BF91AF919F918F917F916F915F914F9175
S11307C03F912F910F9000923B000F9000923A00BE
S11307D00F90009239000F90009238000F90009211
S11307E03F000F901F9018951F920F9200903F00AA
S11307F00F921124009038000F921092380000904C
S113080039000F921092390000903A000F92109222
S11308103A0000903B000F9210923B002F933F93BD
S11308204F935F936F937F938F939F93AF93BF93F4
S1130830EF93FF93CF93DF93CDB7DEB70E94B80455
S113084080930A2080910820882321F08091082039
S1130850813019F481E090E002C080E090E0817082
S113086020910A2091E0223709F090E0892388231F
S113087019F081E0809307200000DF91CF91FF9170
S1130880EF91BF91AF919F918F917F916F915F9104
S11308904F913F912F910F9000923B000F90009247
S11308A03A000F90009239000F90009238000F9098
S11308B000923F000F901F901895CF93DF931F92E3
S11308C0CDB7DEB7898380E098E020910120309194
S11308D00220FC0126A337A380E098E0FC0110A2CB
S11308E011A28981882329F080E098E021E0FC01AD
S11308F0268300000F90DF91CF910895CF93DF936B
S1130900CDB7DEB780EA9BE0FC01168280EA9BE06B
S1130910FC01178280EA9BE023E0FC01258380EA46
S11309209BE028E1FC01248380EA9BE020E2FC01B7
S113093023830000DF91CF910895CF93DF931F921B
S1130940CDB7DEB78983000080EA9BE0FC0181819A
S1130950882F90E080729927892BB1F380EA9BE07D
S11309602981FC01208300000F90DF91CF9108952D
S1130970CF93DF93CDB7DEB7000080EA9BE0FC01A4
S113098081818823D4F780EA9BE0FC018081DF9198
S1130990CF91089597FB072E16F4009407D077FDA6
S11309A009D00E94E70407FC05D03EF49095819598
S11309B09F4F0895709561957F4F0895EE0FFF1F27
S11309C0881F8BBF0790F691E02D1BBE1994AA1BBC
S11309D0BB1B51E107C0AA1FBB1FA617B70710F026
S11309E0A61BB70B881F991F5A95A9F78095909558
S10D09F0BC01CD010895F894FFCF77
S10709FA01A107004C
S9030000FC
