:100000000C94FE000C9424010C9424010C94240103
:100010000C9424010C9424010C9424010C942401CC
:100020000C9424010C9424010C9424010C942401BC
:100030000C9424010C9424010C9424010C942401AC
:100040000C9424010C9424010C9424010C9424019C
:100050000C9424010C9424010C9424010C9424018C
:100060000C9424010C9424010C9424010C9424017C
:100070000C9424010C9424010C9424010C9424016C
:100080000C9424010C9424010C9424010C9424015C
:100090000C9424010C9424010C9424010C9424014C
:1000A0000C9424010C9424010C9424010C941C0243
:1000B0000C9424010C9424010C9424010C9424012C
:1000C0000C9424010C9424010C9424010C9424011C
:1000D0000C9424010C9424010C9424010C9424010C
:1000E0000C9424010C9424010C9424010C942401FC
:1000F0000C9424010C9424010C9424010C942401EC
:100100000C9424010C9424010C9424010C942401DB
:100110000C9424010C9424010C9424010C942401CB
:100120000C9424010C9424010C9424010C942401BB
:100130000C9424010C9424010C9424010C942401AB
:100140000C9424010C9424010C9424010C9424019B
:100150000C9424010C9424010C9424010C9424018B
:100160000C9424010C9424010C9424010C9424017B
:100170000C9424010C9424010C9424010C9424016B
:100180000C9424010C9424010C9424010C9424015B
:100190000C9424010C9424010C9424010C9424014B
:1001A0000C9424010C9424010C9424010C9424013B
:1001B0000C9424010C9424010C9424010C9424012B
:1001C0000C9424010C9424010C9424010C9424011B
:1001D0000C9424010C9424010C9424010C944402EA
:1001E0000C9424010C9424010C9424010C942401FB
:1001F0000C9424010C9424010C94240111241FBE9E
:10020000CFEFCDBFDFE3DEBF00E00CBF18BE19BEED
:100210001ABE1BBE10E2A0E0B0E2E4E7F5E000E0A9
:100220000BBF02C007900D92A230B107D9F71BBED9
:1002300020E2A2E0B0E201C01D92A930B207E1F7CE
:100240000E9482010C94B8020C940000CF93DF93BB
:10025000CDB7DEB780E096E02FEFFC0122830000EF
:10026000DF91CF910895CF93DF93CDB7DEB780E4D0
:1002700096E02FEFFC0121830000DF91CF910895DC
:10028000CF93DF93CDB7DEB780E896E023E0FC01A3
:10029000228380E896E021E0FC01228780E896E056
:1002A00022E0FC01238780E896E02AE0FC01218718
:1002B00080E896E022E0FC01208B80E896E022E0D6
:1002C000FC01218B0000DF91CF910895CF93DF9344
:1002D000CDB7DEB780EA96E028E3FC01218380EA0F
:1002E00096E020E2FC01258380EA96E028E0FC010C
:1002F000258380EA96E024E0FC0122830000DF9160
:10030000CF910895CF93DF93CDB7DEB70E9426013A
:100310000E9433010E9466010E9440010E946C020B
:1003200080EA90E020EA30E0F90122812260FC01BD
:100330002283789480910620882F90E08130910567
:1003400089F18230910509F441C0892B09F04CC034
:1003500080E096E0FC01808580930220809102205D
:100360008093032080E496E020910320FC01248305
:1003700080910820882349F00E94A602823719F450
:1003800081E0809305201092082080910720882327
:1003900041F181E08093042081E080930620109257
:1003A00007201FC085E696E020E4FC01208382E759
:1003B0000E948B02809104208823A9F0809105205F
:1003C000882389F082E0809306200DC086E696E0BF
:1003D00020E4FC01208385E696E020E1FC012083F7
:1003E00003C0000001C00000809100208823A1F01C
:1003F00080E096E0FC0180858093022080910220BD
:100400008093032080E496E020910320FC01248364
:10041000809102200E948B0280910020882309F0A5
:1004200089CF0E94A6028093032080E496E0209169
:100430000320FC0124837ECF1F920F9200903F0087
:100440000F921124009038000F9210923800009003
:100450003A000F9210923A008F93CF93DF93CDB76B
:10046000DEB781E0809307200000DF91CF918F916C
:100470000F9000923A000F90009238000F90009277
:100480003F000F901F9018951F920F9200903F0011
:100490000F921124009038000F92109238000090B3
:1004A0003A000F9210923A008F93CF93DF93CDB71B
:1004B000DEB781E0809308200000DF91CF918F911B
:1004C0000F9000923A000F90009238000F90009227
:1004D0003F000F901F901895CF93DF93CDB7DEB7F5
:1004E00080EA9BE0FC01168280EA9BE0FC01178217
:1004F00080EA9BE023E0FC01258380EA9BE028E181
:10050000FC01248380EA9BE020E2FC0123830000BD
:10051000DF91CF910895CF93DF931F92CDB7DEB7D0
:100520008983000080EA9BE0FC018181882F90E0B4
:1005300080729927892BB1F380EA9BE02981FC0125
:10054000208300000F90DF91CF910895CF93DF9328
:10055000CDB7DEB7000080EA9BE0FC0181818823F3
:10056000D4F780EA9BE0FC018081DF91CF91089570
:04057000F894FFCF2D
:02057400010084
:00000001FF
